01REMESSA01COBRANCA       123456789123        ABCDEFGHJK ABCDE              341BANCO ITAU SA  852963                                                                                                                                                                                                                                                                                                      000001
12341458693625142558695847586        999999/1                 445588990000000000000109                     112233445/1  300159000000777777777700000088888888888800000000666660000000000000000000             00000000000000112233445566778TTTTT E HJHJHJHJ LTDA                   RUA 50 - 500 ESQ. 50                    RUA         77777777CAMPO GRANDE   SP                                        00 00000244556677889911223344556677889933221144556698
12341458693625142558695847586        999999/1                 445588990000000000000109                     112233445/1  300159000000777777777700000088888888888800000000666660000000000000000000             00000000000000112233445566778TTTTT E HJHJHJHJ LTDA                   RUA 50 - 500 ESQ. 50                    RUA         77777777CAMPO GRANDE   SP                                        00 00000344556677889911223344556677889933221144556698
12341458693625142558695847586        999999/1                 445588990000000000000109                     112233445/1  300159000000777777777700000088888888888800000000666660000000000000000000             00000000000000112233445566778TTTTT E HJHJHJHJ LTDA                   RUA 50 - 500 ESQ. 50                    RUA         77777777CAMPO GRANDE   SP                                        00 00000444556677889911223344556677889933221144556698
12341458693625142558695847586        999999/1                 445588990000000000000109                     112233445/1  300159000000777777777700000088888888888800000000666660000000000000000000             00000000000000112233445566778TTTTT E HJHJHJHJ LTDA                   RUA 50 - 500 ESQ. 50                    RUA         77777777CAMPO GRANDE   SP                                        00 00000544556677889911223344556677889933221144556698
12341458693625142558695847586        999999/1                 445588990000000000000109                     112233445/1  300159000000777777777700000088888888888800000000666660000000000000000000             00000000000000112233445566778TTTTT E HJHJHJHJ LTDA                   RUA 50 - 500 ESQ. 50                    RUA         77777777CAMPO GRANDE   SP                                        00 00000644556677889911223344556677889933221144556698
12341458693625142558695847586        999999/1                 445588990000000000000109                     112233445/1  300159000000777777777700000088888888888800000000666660000000000000000000             00000000000000112233445566778TTTTT E HJHJHJHJ LTDA                   RUA 50 - 500 ESQ. 50                    RUA         77777777CAMPO GRANDE   SP                                        00 00000744556677889911223344556677889933221144556698
12341458693625142558695847586        999999/1                 445588990000000000000109                     112233445/1  300159000000777777777700000088888888888800000000666660000000000000000000             00000000000000112233445566778TTTTT E HJHJHJHJ LTDA                   RUA 50 - 500 ESQ. 50                    RUA         77777777CAMPO GRANDE   SP                                        00 00000844556677889911223344556677889933221144556698
12341458693625142558695847586        999999/1                 445588990000000000000109                     112233445/1  300159000000777777777700000088888888888800000000666660000000000000000000             00000000000000112233445566778TTTTT E HJHJHJHJ LTDA                   RUA 50 - 500 ESQ. 50                    RUA         77777777CAMPO GRANDE   SP                                        00 00000944556677889911223344556677889933221144556698
12341458693625142558695847586        999999/1                 445588990000000000000109                     112233445/1  300159000000777777777700000088888888888800000000666660000000000000000000             00000000000000112233445566778TTTTT E HJHJHJHJ LTDA                   RUA 50 - 500 ESQ. 50                    RUA         77777777CAMPO GRANDE   SP                                        00 00001044556677889911223344556677889933221144556698
12341458693625142558695847586        999999/1                 445588990000000000000109                     112233445/1  300159000000777777777700000088888888888800000000666660000000000000000000             00000000000000112233445566778TTTTT E HJHJHJHJ LTDA                   RUA 50 - 500 ESQ. 50                    RUA         77777777CAMPO GRANDE   SP                                        00 00001144556677889911223344556677889933221144556698
12341458693625142558695847586        999999/1                 445588990000000000000109                     112233445/1  300159000000777777777700000088888888888800000000666660000000000000000000             00000000000000112233445566778TTTTT E HJHJHJHJ LTDA                   RUA 50 - 500 ESQ. 50                    RUA         77777777CAMPO GRANDE   SP                                        00 00001244556677889911223344556677889933221144556698
12341458693625142558695847586        999999/1                 445588990000000000000109                     112233445/1  300159000000777777777700000088888888888800000000666660000000000000000000             00000000000000112233445566778TTTTT E HJHJHJHJ LTDA                   RUA 50 - 500 ESQ. 50                    RUA         77777777CAMPO GRANDE   SP                                        00 00001344556677889911223344556677889933221144556698
12341458693625142558695847586        999999/1                 445588990000000000000109                     112233445/1  300159000000777777777700000088888888888800000000666660000000000000000000             00000000000000112233445566778TTTTT E HJHJHJHJ LTDA                   RUA 50 - 500 ESQ. 50                    RUA         77777777CAMPO GRANDE   SP                                        00 00001444556677889911223344556677889933221144556698
12341458693625142558695847586        999999/1                 445588990000000000000109                     112233445/1  300159000000777777777700000088888888888800000000666660000000000000000000             00000000000000112233445566778TTTTT E HJHJHJHJ LTDA                   RUA 50 - 500 ESQ. 50                    RUA         77777777CAMPO GRANDE   SP                                        00 00001544556677889911223344556677889933221144556698
12341458693625142558695847586        999999/1                 445588990000000000000109                     112233445/1  300159000000777777777700000088888888888800000000666660000000000000000000             00000000000000112233445566778TTTTT E HJHJHJHJ LTDA                   RUA 50 - 500 ESQ. 50                    RUA         77777777CAMPO GRANDE   SP                                        00 00001644556677889911223344556677889933221144556698
12341458693625142558695847586        999999/1                 445588990000000000000109                     112233445/1  300159000000777777777700000088888888888800000000666660000000000000000000             00000000000000112233445566778TTTTT E HJHJHJHJ LTDA                   RUA 50 - 500 ESQ. 50                    RUA         77777777CAMPO GRANDE   SP                                        00 00001744556677889911223344556677889933221144556698
12341458693625142558695847586        999999/1                 445588990000000000000109                     112233445/1  300159000000777777777700000088888888888800000000666660000000000000000000             00000000000000112233445566778TTTTT E HJHJHJHJ LTDA                   RUA 50 - 500 ESQ. 50                    RUA         77777777CAMPO GRANDE   SP                                        00 00001844556677889911223344556677889933221144556698
12341458693625142558695847586        999999/1                 445588990000000000000109                     112233445/1  300159000000777777777700000088888888888800000000666660000000000000000000             00000000000000112233445566778TTTTT E HJHJHJHJ LTDA                   RUA 50 - 500 ESQ. 50                    RUA         77777777CAMPO GRANDE   SP                                        00 00001944556677889911223344556677889933221144556698
12341458693625142558695847586        999999/1                 445588990000000000000109                     112233445/1  300159000000777777777700000088888888888800000000666660000000000000000000             00000000000000112233445566778TTTTT E HJHJHJHJ LTDA                   RUA 50 - 500 ESQ. 50                    RUA         77777777CAMPO GRANDE   SP                                        00 00002044556677889911223344556677889933221144556698
12341458693625142558695847586        999999/1                 445588990000000000000109                     112233445/1  300159000000777777777700000088888888888800000000666660000000000000000000             00000000000000112233445566778TTTTT E HJHJHJHJ LTDA                   RUA 50 - 500 ESQ. 50                    RUA         77777777CAMPO GRANDE   SP                                        00 00002144556677889911223344556677889933221144556698
12341458693625142558695847586        999999/1                 445588990000000000000109                     112233445/1  300159000000777777777700000088888888888800000000666660000000000000000000             00000000000000112233445566778TTTTT E HJHJHJHJ LTDA                   RUA 50 - 500 ESQ. 50                    RUA         77777777CAMPO GRANDE   SP                                        00 00002244556677889911223344556677889933221144556698
12341458693625142558695847586        999999/1                 445588990000000000000109                     112233445/1  300159000000777777777700000088888888888800000000666660000000000000000000             00000000000000112233445566778TTTTT E HJHJHJHJ LTDA                   RUA 50 - 500 ESQ. 50                    RUA         77777777CAMPO GRANDE   SP                                        00 00002344556677889911223344556677889933221144556698
12341458693625142558695847586        999999/1                 445588990000000000000109                     112233445/1  300159000000777777777700000088888888888800000000666660000000000000000000             00000000000000112233445566778TTTTT E HJHJHJHJ LTDA                   RUA 50 - 500 ESQ. 50                    RUA         77777777CAMPO GRANDE   SP                                        00 00002444556677889911223344556677889933221144556698
12341458693625142558695847586        999999/1                 445588990000000000000109                     112233445/1  300159000000777777777700000088888888888800000000666660000000000000000000             00000000000000112233445566778TTTTT E HJHJHJHJ LTDA                   RUA 50 - 500 ESQ. 50                    RUA         77777777CAMPO GRANDE   SP                                        00 00002544556677889911223344556677889933221144556698
12341458693625142558695847586        999999/1                 445588990000000000000109                     112233445/1  300159000000777777777700000088888888888800000000666660000000000000000000             00000000000000112233445566778TTTTT E HJHJHJHJ LTDA                   RUA 50 - 500 ESQ. 50                    RUA         77777777CAMPO GRANDE   SP                                        00 00002644556677889911223344556677889933221144556698
12341458693625142558695847586        999999/1                 445588990000000000000109                     112233445/1  300159000000777777777700000088888888888800000000666660000000000000000000             00000000000000112233445566778TTTTT E HJHJHJHJ LTDA                   RUA 50 - 500 ESQ. 50                    RUA         77777777CAMPO GRANDE   SP                                        00 00002744556677889911223344556677889933221144556698
12341458693625142558695847586        999999/1                 445588990000000000000109                     112233445/1  300159000000777777777700000088888888888800000000666660000000000000000000             00000000000000112233445566778TTTTT E HJHJHJHJ LTDA                   RUA 50 - 500 ESQ. 50                    RUA         77777777CAMPO GRANDE   SP                                        00 00002844556677889911223344556677889933221144556698
12341458693625142558695847586        999999/1                 445588990000000000000109                     112233445/1  300159000000777777777700000088888888888800000000666660000000000000000000             00000000000000112233445566778TTTTT E HJHJHJHJ LTDA                   RUA 50 - 500 ESQ. 50                    RUA         77777777CAMPO GRANDE   SP                                        00 00002944556677889911223344556677889933221144556698
12341458693625142558695847586        999999/1                 445588990000000000000109                     112233445/1  300159000000777777777700000088888888888800000000666660000000000000000000             00000000000000112233445566778TTTTT E HJHJHJHJ LTDA                   RUA 50 - 500 ESQ. 50                    RUA         77777777CAMPO GRANDE   SP                                        00 00003044556677889911223344556677889933221144556698
12341458693625142558695847586        999999/1                 445588990000000000000109                     112233445/1  300159000000777777777700000088888888888800000000666660000000000000000000             00000000000000112233445566778TTTTT E HJHJHJHJ LTDA                   RUA 50 - 500 ESQ. 50                    RUA         77777777CAMPO GRANDE   SP                                        00 00003144556677889911223344556677889933221144556698
9
